:1000000047C056C055C054C053C052C051C050C064
:100010004FC04EC04DC04CC04BC04AC01EC148C0AE
:1000200047C046C045C044C000002D002400270042
:100030002A0000002E00250028002B0004040404E0
:100040000404040402020202020202020303030384
:100050000303030101010103010204081020408091
:1000600001020408102040808001020408102001D1
:10007000020408400000000000000000000304002B
:100080000000000000000000000000000000000070
:1000900011241FBECFEFD2E0DEBFCDBF21E0A0E034
:1000A000B1E001C01D92A930B207E1F720D196C19D
:1000B000A7CF87FD8FEF90E0FC01EC58FF4F349104
:1000C000FC01E85AFF4F2491FC01E45CFF4FE491EE
:1000D000EE2369F13323B9F0333049F48091800085
:1000E0008F7780938000809180008F7B0AC03430AE
:1000F00051F4809180008F7D8093800080918000FA
:100100008F7E80938000F0E0EE0FFF1FEE5CFF4FCC
:10011000A591B4918FB7611105C0F894EC91209529
:100120002E2303C0F894EC912E2B2C938FBF0895AF
:10013000CF93DF9387FD8FEF90E0FC01E85AFF4FEC
:100140002491FC01E45CFF4F8491882361F190E0ED
:10015000880F991FFC01E85DFF4FC591D491FC0108
:10016000EE5CFF4FA591B491611109C09FB7F8945F
:100170008881209582238883EC912E230BC06230E6
:1001800061F49FB7F8943881822F80958323888308
:10019000EC912E2B2C939FBF06C08FB7F894E8816B
:1001A0002E2B28838FBFDF91CF9108953FB7F8940E
:1001B0008091050190910601A0910701B09108017D
:1001C00026B5A89B05C02F3F19F00196A11DB11DB2
:1001D0003FBFBA2FA92F982F8827820F911DA11DED
:1001E000B11DBC01CD0143E0660F771F881F991F29
:1001F0004A95D1F70895CF92DF92EF92FF92CF9375
:10020000DF93D4DFEB0184E6C82ED12CE12CF12C56
:10021000CDDF6C1B7D0B683E734040F081E0C81A57
:10022000D108E108F108C851DC4FF2CFC114D10464
:10023000E104F10469F7DF91CF91FF90EF90DF9037
:10024000CF900895CF93C82FD6DF61E08C2F31DF98
:10025000D2DF60E08C2FCF912CCF1F920F920FB680
:100260000F9211242F933F938F939F93AF93BF933C
:100270008091010190910201A0910301B0910401CC
:100280003091000126E0230F2D3730F029E8230FAD
:100290000396A11DB11D03C00296A11DB11D20939F
:1002A00000018093010190930201A0930301B09398
:1002B00004018091050190910601A0910701B09180
:1002C00008010196A11DB11D8093050190930601BF
:1002D000A0930701B0930801BF91AF919F918F91B7
:1002E0003F912F910F900FBE0F901F901895809106
:1002F00066008093660085B5887F836085BD7894AD
:1003000080916E00816080936E0080918100887F73
:100310008093810080918000816080938000809133
:1003200080008D7F8093800080918100877F809303
:100330008100809181008F7E809381008091810077
:1003400083608093810080917A00887786688093AB
:100350007A0080917A00806880937A0061E080E082
:10036000E7DE61E081E0E4DE61E082E0E1DE60E0C2
:1003700080E09FDE60E081E09CDE60E082E099DE6C
:1003800060E086E0D5DE61E08AE0D2DE61E089E00F
:10039000CFDE61E087E1CCDE61E088E1C9DE61E0CB
:1003A0008AE1C6DE60E08AE184DE60E089E081DE29
:1003B00060E08AE07EDE60E088E17BDE60E087E18D
:1003C00078DE60E08AE175DE60E088E172DE80E080
:1003D00090E038DF8AE090E035DFF9CFF894FFCF86
:00000001FF
